:020000040800F2
:10000000E8060020B9010008DB090008D90900084A
:1000100000000000000000000000000000000000E0
:10002000000000000000000000000000DF090008E0
:100030000000000000000000DD090008E1090008E0
:10004000CB010008CB010008CB010008CB01000860
:10005000CB010008CB010008CB010008CB01000850
:10006000CB010008CB010008CB010008CB01000840
:10007000CB010008CB010008CB010008CB01000830
:10008000CB010008CB010008CB010008CB01000820
:10009000CB010008CB010008CB010008CB01000810
:1000A000CB010008CB010008CB010008CB01000800
:1000B000CB010008ED090008CB010008CB010008C6
:1000C00000F002F800F04CF812A030C808382418EC
:1000D0002D18AC4201D100F043F80FCCA246AB463C
:1000E0000CA730CF2D1B083F3F197C427F1E544484
:1000F0002D090426F441641EAC4201D300F030F80F
:100100000126334200D0FB1A3343984754465D46DC
:10011000DFE700009C140000BC140000103A02D37A
:1001200078C878C1FAD8520701D330C830C101D598
:1001300004680C6070470000704700000023002432
:1001400000250026103A01D378C1FBD8520700D30E
:1001500030C100D50B6070471FB51FBD10B510BD75
:1001600000F069F81146FFF7F7FF00F087FC00F098
:1001700081F803B4FFF7F2FF03BC00F087F800003A
:1001800070B505460C46164602E00FCC0FC5103E72
:10019000102EFAD2082E02D303CC03C5083E042E3B
:1001A00007D301CC01C5361F03E021782970641CF8
:1001B0006D1C761EF9D270BD07488047074800477E
:1001C000FEE7FEE7FEE7FEE7FEE7FEE70448054937
:1001D000054A064B70470000E9090008C100000805
:1001E000E8000020E8060020E8020020E8020020E5
:1001F00001E004C0091F0429FBD28B0701D502804E
:10020000801CC90700D00270704700290BD0C307BB
:1002100002D00270401C491E022904D3830702D574
:100220000280801C891EE3E70022EEE70022DFE760
:10023000704770477047754600F024F8AE460500D9
:1002400069465346C008C000854618B020B5FFF780
:10025000BDFF60BCB64600260027C0C5C0C5C0C5EE
:10026000C0C5C0C5C0C5C0C5C0C5403D49084900DE
:100270008D46704710B50446C046C0462046FFF77D
:1002800078FF10BD00487047780000200149182011
:10029000ABBEFEE72600020070470000054800687C
:1002A0007047C0461A48007802490A68101808606A
:1002B0007047C046E000002080B5854801681022E4
:1002C0000A430260032000F005F800F023F8002044
:1002D00080BDC04670B504467D20C0000C4E31780C
:1002E00001F01EF801468448006801F019F800F09A
:1002F00059FB0125032C08D8002806D10025E84326
:1003000021462A4600F01CF87460284670BDC0469D
:100310000000002082B009480168012211430160F9
:100320000168114001910199110742680A43426036
:10033000406808400090009802B0704718100240D2
:10034000002805D40322034693430A4A9A1803E07F
:100350000C220240064BD2188007C00E8901C9B298
:100360008140FF2383401068984308431060704722
:1003700014ED00E000E400E0F0B581B0002846D0C4
:100380000446534A1368012003408B4208D2136885
:100390000126B3430B431360126832408A4237D1BF
:1003A000009121688A074B4B10D54A0706D50722D2
:1003B00012021B681343474A1360464B1A68F02326
:1003C0009A43A3681343434A1360424BC90722D19F
:1003D0003F49086801263040009A904205D90868D4
:1003E000B04308600868C00712D12078400706D5DE
:1003F0000720000219688143E068084318601A6802
:100400001007810F3548022912D2044650E0012618
:10041000304601B0F0BD616803290DD01A1F0229D2
:100420000FD0012912D1126892030646F0D511E0CF
:10043000032926D12A4C3BE01A6B92030646E7D5E6
:1004400008E0126892010646E2D503E012689207BE
:100450000646DDD518680326B04308431860FFF749
:100460001DFF07461C4D1B4B18680C21014060689E
:1004700080008142ACD0FFF711FFC01BA842F2D927
:10048000C6E70321CB031349896A0F240C401549A1
:10049000095D94021A40240F134D2C5D9A4202D03C
:1004A00033049A4200E00E4800F03AFF4443094BFF
:1004B00018680006000F0D49085CC4400E4804602F
:1004C0000320FFF707FF0026304601B0F0BDC0460D
:1004D00000200240041002408813000000127A003D
:1004E000006CDC029F1500088F1500087F150008BE
:1004F000014800687047C04608000020F0B587B08A
:1005000004460120002C00D145E204902078C00769
:10051000F94E05940CD071680C200140042900D0DC
:1005200090E03068800303D56068002800D120E1A6
:100530002078800721D570680007800F0ED0706882
:100540000C210140082900D09DE00320C003716800
:1005500001400120C003814200D094E03068800750
:10056000059C03D5E068012800D002E13068F8213D
:1005700088432169C90001433160059C2078000748
:1005800024D42078400737D42078C00600D4D3E0A4
:1005900005984069411D00D1C2E0012800D030E13A
:1005A000706B042101437163706B0121014371631E
:1005B000FFF774FE0546706B800700D5B4E0FFF7C7
:1005C0006DFE411B03200229F5D9E4E1706AE1695F
:1005D000002900D181E0012108437062FFF75EFE2F
:1005E0000546706A8007CCD4FFF758FE401B0228EE
:1005F000F7D9032007B0F0BD012003900107F0698F
:100600000840029006D1F0690843F061F0690840A3
:10061000069006980191E14F3868C0054AD40398C6
:100620000402386820433860FFF738FE0546386812
:1006300020423FD1FFF732FE401B6428F7D9032048
:1006400007B0F0BD71680140082908D10320C0033C
:100650007168014001200004814200D161E76168B6
:1006600001204704002900D117E1052900D12BE121
:10067000012900D12CE1010432688A4332608104EF
:100680003068884327E13068059CE168002936D04E
:10069000012108433060FFF701FE054630688007FE
:1006A00000D563E7FFF7FAFD401B0228F6D90320C7
:1006B00007B0F0BD05988068002800D1B6E0052895
:1006C00000D1C9E0012800D1CAE0306A039988430B
:1006D0003062306A04218843C5E00121884370629A
:1006E000FFF7DCFD0546706A800700D449E7FFF795
:1006F000D5FD401B0228F6D9032007B0F0BD01212B
:1007000088433060FFF7CAFD05463068800700D493
:1007100033E7FFF7C3FD411B03200229F5D93AE176
:10072000706B042188437063706BF82188430599CE
:100730008969C900014371630598007880060BD56B
:1007400071680C2001400C2939D1706B800303D5EE
:100750000598006A01280CD10598446A002C00D144
:10076000E1E070680C210140082905D1012C00D07E
:10077000C4E0049807B0F0BD01200206316804927D
:10078000914331604706FFF789FD0546022C0BD1E6
:10079000049C3068384200D1DEE0FFF77FFD411B4A
:1007A00003200229F5D9F6E03068384200D1BAE0DA
:1007B000FFF774FD411B03200229F5D9EBE07168B6
:1007C0000140082905D10320C0037168014081421E
:1007D000BBD0706B0599096A002900D1A9E00121FD
:1007E0000A04104370634C04FFF758FD0546706B14
:1007F0002042B1D1FFF752FD411B03200229F6D957
:10080000C9E0706B042101437163706B012188435F
:100810007063FFF743FD0546706B80078CD5FFF7CB
:100820003DFD411B03200229F6D9B4E0306A03994B
:1008300088433062306A042188433062584CFFF7A5
:100840002DFD0546306A80071DD5FFF727FD411BAA
:100850000320A142F6D99EE0306A042101433162AF
:10086000306A0399084330624D4CFFF717FD054687
:10087000306A800707D4FFF711FD401BA042F7D96B
:10088000032007B0F0BD02980028059C00D07BE64D
:10089000F06901998843F06176E6010432688A4381
:1008A00032608004316881433160FFF7F7FC054610
:1008B000059C3068384200D13AE6FFF7EFFC411B57
:1008C00003206429F5D966E0810432680A43326066
:1008D0000104306808433060FFF7E0FC05463068EB
:1008E000384200D024E6FFF7D9FC401B6428F6D933
:1008F000032007B0F0BDC046001002400320C20331
:1009000070680240F16A059CA36A9A42049D0DD169
:100910000F221140236B994208D191040840E16AEB
:100920008842284637D1002007B0F0BD284607B0DE
:10093000F0BD01210A04904370634C04FFF7AEFC44
:100940000546706B204200D106E7FFF7A7FC411B6C
:1009500003200229F5D91EE0F06A0F218843059A89
:10096000116B0143F1627B20C00371688143D06A3F
:100970000843916A01437160306820433060FFF79B
:100980008DFC044630683842CDD1FFF787FC011B4F
:1009900003200229F6D907B0F0BDC0460070004020
:1009A00088130000401E010E01D001207047074946
:1009B000074A5060074803680B400321890759180C
:1009C000016000209060072111607047FFFFFF0069
:1009D00010E000E020ED00E0FEE7FEE77047704722
:1009E00080B5FFF75FFC80BD7047000010B58248FE
:1009F00004797C4A11890123012C2AD114681468D6
:100A000024060BD414681468240607D414681468E8
:100A1000240603D4146814682406EFD5C9B2918162
:100A20001468146824060BD414681468240607D4C8
:100A300014681468240603D4146814682406EFD5D7
:100A40000A249481037000220271407900F0D6F8E4
:100A500010BD41711468146824060BD4146814681E
:100A6000240607D414681468240603D41468146890
:100A70002406EFD5C9B29181037110BD92B0FFF782
:100A80001BFC04AD281D3021FFF7D0FB00240D9482
:100A90001020089001260796022004902846FFF7B0
:100AA0002DFD002803D0EFF3108072B6FEE703940B
:100AB000029401940720009068462146FFF75CFCF1
:100AC000002803D0EFF3108072B6FEE7B004424F67
:100AD0003968014339600F210A0540490B68934387
:100AE0000B60052252050B6813430B604A684C608B
:100AF0008A688C60CA68CC604A6A394D2A404A626A
:100B0000112292024B6A13434B62B9680143B960E8
:100B1000FFF7EEFCE121490200F002FCFB490A4626
:100B2000103A106008461C3802680C231343036017
:100B3000026832430260F2043B6813433B60FF22C9
:100B40001203294B1F6897431F60552212031F6829
:100B500017431F605A685C609A689C60DA68DC60C2
:100B600002682023134303607007204A1060204866
:100B700002682A40B303D21802600A2005901D487B
:100B80000490E848027804AB1B78002B1AD0234667
:100B900005E08D815B1C04ADED5C002D12D004AD31
:100BA000ED5C0F680F683F06F3D40F680F683F06CF
:100BB000EFD40F680F683F06EBD40F680F683F064D
:100BC000EFD5E6E7D20706D00670324604AB1B78B5
:100BD000002BDCD1F6E7FEE71410024000040048C9
:100BE000FF00FFFF1C4800400008004800E100E053
:100BF0001CE400E0434D443FD8000020B0B5AAB04B
:100C00000D460446B0482790AFA0816829914068FE
:100C10002890B0A0017A24AA117240682590AD48AE
:100C20002490AFA0018921AA118140682290AC488C
:100C30002190AEA0817A1EAA91720189118140682B
:100C40001F90AA481E9004A8AB496722FFF798FAA4
:100C5000322D00D197E0312D31D0302D00D0B9E0C8
:100C6000A6A0018901AA1181A449019140680290BE
:100C70000F208001A4490B6883430B601178A348BF
:100C8000002900D1C9E0002106E08281491C01AAA7
:100C9000525C002A00D1C0E001AA525C03680368DC
:100CA0001B06F2D4036803681B06EED403680368CE
:100CB0001B06EAD4036803681B06EFD5E5E794A09A
:100CC000017A01AA1172924901914068029011784B
:100CD0008E4800291AD0002105E08281491C01AA12
:100CE000525C002A12D001AA525C036803681B06FA
:100CF000F3D4036803681B06EFD4036803681B067C
:100D0000EBD4036803681B06EFD5E6E7623C102CC2
:100D100000D946E26400C0467C44A4886400A7442D
:100D20001000400240024002400226014002400200
:100D3000400240024002400240024701400240029D
:100D4000680121A90A788021002A00D171E10022DE
:100D500006E08381521C21AB9B5C002B00D168E133
:100D600021AB9B5C046804682406F2D40468046820
:100D70002406EED4046804682406EAD404680468EF
:100D80002406EFD5E5E76548019064A0406802902D
:100D900001A800785D49002800D179E0002006E034
:100DA0008A81401C01AA125C002A00D170E001AACD
:100DB000125C0B680B681B06F2D40B680B681B06F1
:100DC000EED40B680B681B06EAD40B680B681B0695
:100DD000EFD5E5E7534900200871087052490A78B9
:100DE000002A00D15EE2494A05E09381401C0B5C79
:100DF000002B00D156E20B5C146814682406F4D46E
:100E0000146814682406F0D4146814682406ECD41A
:100E1000146814682406EFD5E7E7623C102C00D96B
:100E2000DEE164007C44A4886400A7441000D9017A
:100E3000D901D901D9010B01D901D901D901D901B0
:100E4000D901D901D9012C01D901D901F80121A970
:100E50000978002900D125E2002106E08281491CA1
:100E600021AA525C002A00D11CE221AA525C03682C
:100E700003681B06F2D4036803681B06EED40368FC
:100E800003681B06EAD4036803681B06EFD5E5E791
:100E9000623C1D48102C00D9E0E164007C44A48829
:100EA0006400A7444300DB01DB01DB01DB0111012E
:100EB000DB01DB01DB01DB01DB01DB01DB013001FD
:100EC000DB01DB010102C0464F72616E6765204C99
:100ED00045440A0A526564204C45440A0A00000051
:100EE000426C7565204C45440A0A000047726565EE
:100EF0006E204C45440A0A00181500085475726E9D
:100F0000204F46463A0A0000140800481C4800409A
:100F10005475726E204F4E3A20000000546F676780
:100F20006C653A20D80000200C00002021AA12781D
:100F3000002A00D106E1002206E08B81521C21AB81
:100F40009B5C002B00D1FDE021AB9B5C0C680C6826
:100F50002406F2D40C680C682406EED40C680C68E5
:100F60002406EAD40C680C682406EFD5E5E70121D5
:100F700049021EAA1278002A5BD0002205E0838174
:100F8000521C1EAB9B5C002B53D01EAB9B5C0468B9
:100F900004682406F3D4046804682406EFD40468C3
:100FA00004682406EBD4046804682406EFD5E6E759
:100FB0000121090227AA1278002A3AD0002205E06E
:100FC0008381521C27AB9B5C002B32D027AB9B5CF0
:100FD000046804682406F3D4046804682406EFD483
:100FE000046804682406EBD4046804682406EFD57A
:100FF000E6E724A90A784021002A1AD0002205E059
:101000008381521C24AB9B5C002B12D024AB9B5CD5
:10101000046804682406F3D4046804682406EFD442
:10102000046804682406EBD4046804682406EFD539
:10103000E6E70F208001B84A136883430B4313602F
:101040002AB0B0BD1EA90978002900D12AE10021EB
:1010500006E08281491C1EAA525C002A00D121E1CF
:101060001EAA525C036803681B06F2D40368036877
:101070001B06EED4036803681B06EAD40368036802
:101080001B06EFD5E5E727A90978002900D109E17A
:10109000002106E08281491C27AA525C002A00D167
:1010A00000E127AA525C036803681B06F2D40368B8
:1010B00003681B06EED4036803681B06EAD40368C2
:1010C00003681B06EFD5E5E71EAA1278002A47D071
:1010D000002205E08B81521C1EAB9B5C002B3FD095
:1010E0001EAB9B5C0C680C682406F3D40C680C687F
:1010F0002406EFD40C680C682406EBD40C680C684A
:101100002406EFD5E6E727AA1278002A36D0002277
:1011100005E08B81521C27AB9B5C002B2ED027ABAC
:101120009B5C0C680C682406F3D40C680C682406DD
:10113000EFD40C680C682406EBD40C680C68240609
:10114000EFD5E6E703680468744A14408034016808
:10115000A34200D0D4E08022914301602AB0B0BD08
:10116000046801686D4B1940012252028D18016814
:10117000AC4211D1914301602AB0B0BD046801684E
:10118000664B1940012212028D180168AC4203D14E
:10119000914301602AB0B0BD1940114301602AB0EB
:1011A000B0BD04A9097800297CD0002105E0828126
:1011B000491C04AA525C002A74D004AA525C036839
:1011C00003681B06F3D4036803681B06EFD40368A7
:1011D00003681B06EBD4036803681B06EFD5E6E73C
:1011E00004A9097800295DD0002105E08281491C0D
:1011F00004AA525C002A55D004AA525C0368036812
:101200001B06F3D4036803681B06EFD40368036866
:101210001B06EBD4036803681B06EFD5E6E724A999
:10122000097800293ED0002105E08281491C24AACA
:10123000525C002A36D024AA525C036803681B065D
:10124000F3D4036803681B06EFD4036803681B0626
:10125000EBD4036803681B06EFD5E6E70F22920183
:1012600003689343036004A8007800281AD0002084
:1012700005E08A81401C04AA125C002A12D004AA4C
:10128000125C0B680B681B06F3D40B680B681B061B
:10129000EFD40B680B681B06EBD40B680B681B06BE
:1012A000EFD5E6E72AB0B0BD24AA1278002A1AD0FA
:1012B000002205E08B81521C24AB9B5C002B12D0DA
:1012C00024AB9B5C0C680C682406F3D40C680C6897
:1012D0002406EFD40C680C682406EBD40C680C6868
:1012E0002406EFD5E6E7036804680C4A144040344E
:1012F0000168A3420AD14022914301602AB0B0BDE7
:1013000011408022114301602AB0B0BD114040223B
:10131000114301602AB0B0BD140800483FFCFFFF34
:1013200043088B421AD3002203098B4279D3030A64
:101330008B425ED3030B8B4242D3030C8B4227D3E9
:101340000902FF2212BA030C8B4202D312120902C5
:1013500003D0030B8B4233D31AE0D3E0411A804110
:10136000401C704703460B4371D443088B42F5D3AE
:10137000002203098B4254D3030A8B4239D3030B57
:101380008B421DD3030C8B4202D394466EE0090AB4
:10139000C30B8B4201D3CB03C01A5241830B8B4248
:1013A00001D38B03C01A5241430B8B4201D34B0331
:1013B000C01A5241030B8B4201D30B03C01A524196
:1013C000C30A8B4201D3CB02C01A5241830A8B421B
:1013D00001D38B02C01A5241430A8B4201D34B0204
:1013E000C01A5241030A8B4201D30B02C01A524168
:1013F000CDD2C3098B4201D3CB01C01A524183091C
:101400008B4201D38B01C01A524143098B4201D355
:101410004B01C01A524103098B4201D30B01C01A80
:101420005241C3088B4201D3CB00C01A52418308FA
:101430008B4201D38B00C01A524143088B4201D327
:101440004B00C01A5241411A524110007047CA0F56
:1014500000D04942031000D34042534000229C4632
:1014600003098B422DD3030A8B4212D38901FC223C
:1014700012BA030A8B420CD3890192118B4208D312
:10148000890192118B4204D3890137D0921100E077
:101490008909C3098B4201D3CB01C01A5241830988
:1014A0008B4201D38B01C01A524143098B4201D3B5
:1014B0004B01C01A524103098B4201D30B01C01AE0
:1014C0005241C3088B4201D3CB00C01A524183085A
:1014D0008B4201D38B00C01A5241D9D243088B42B0
:1014E00001D34B00C01A5241411A00D20146524169
:1014F000104663465B1000D34042704763465B1062
:1015000000D3404201B50021004201D0C943084642
:10151000C046C04602BD00000A496E636F72726524
:10152000637420627574746F6E20697320636C69D4
:10153000636B65640A636C69636B3A0A22722220EA
:10154000666F72205265640A22622220666F7220E2
:10155000426C75650A226F2220666F72204F72619D
:101560006E67650A22672220666F72204772656582
:101570006E0A25252525252525252525250A0A0048
:101580000000000000000001020304060708090231
:10159000030405060708090A0B0C0D0E0F101001B5
:1015A00002030405060708090A0B0C0D0E0F1000B4
:1015B000D015000800000020780000001C01000881
:1015C0004816000878000020700600003C01000862
:1015D000010000000400000000127A000A5468654F
:1015E000205365636F6E6420496E70757420497373
:1015F00020496E636F72726563740A497420536880
:101600006F756C642042653A0A22302220546F20A4
:101610005475726E204F46460A22312220546F20A4
:101620005475726E204F4E0A22322220546F20547D
:101630006F67676C65200A25252525252525252525
:0816400025250A0A0000000044
:04000005080000C12E
:00000001FF
